:020000040800F2
:1000000098090020890100086B220008051F0008DC
:100010006922000807030008D92C0008000000002E
:10002000000000000000000000000000F5260008AD
:100030001503000800000000CD260008F92600087E
:10004000A3010008A3010008A3010008A301000800
:10005000A3010008A3010008A3010008A3010008F0
:10006000A3010008A3010008A3010008A3010008E0
:10007000A3010008A3010008A3010008A3010008D0
:10008000A301000809030008A3010008A301000858
:10009000A3010008A3010008A3010008A3010008B0
:1000A000A3010008AD270008A3010008A12700084C
:1000B000B9270008C5270008A3010008A30100080C
:1000C000A3010008A3010008A3010008A301000880
:1000D000A3010008A3010008A3010008A301000870
:1000E000A3010008A3010008A301000800F002F822
:1000F00000F03AF80AA090E8000C82448344AAF188
:100100000107DA4501D100F02FF8AFF2090EBAE885
:100110000F0013F0010F18BFFB1A43F0010318473B
:10012000684B0000884B0000103A24BF78C878C1A3
:10013000FAD8520724BF30C830C144BF04680C60ED
:10014000704700000023002400250026103A28BF35
:1001500078C1FBD8520728BF30C148BF0B60704739
:100160001FB51FBD10B510BD00F06CF81146FFF7AC
:10017000F7FF03F055FA00F08AF803B4FFF7F2FF37
:1001800003BC00F08DF8000009488047094800478B
:10019000FEE7FEE7FEE7FEE7FEE7FEE7FEE7FEE737
:1001A000FEE7FEE704480549054A064B7047000094
:1001B0009D270008ED000008980300209809002002
:1001C00098050020980500204FF0000200B5134666
:1001D00094469646203922BFA0E80C50A0E80C5067
:1001E000B1F12001BFF4F7AF090728BFA0E80C5018
:1001F00048BF0CC05DF804EB890028BF40F8042B11
:1002000008BF704748BF20F8022B11F0804F18BF7D
:1002100000F8012B704770477047704710B500F029
:1002200009F8006810BD10B5044600F003F804603A
:1002300010BD00000048704734030020004870479C
:10024000340300207546FFF7F9FFAE460500694606
:10025000534620F00700854618B020B5FFF7A2FFEF
:10026000BDE820404FF000064FF000074FF00008B7
:100270004FF0000B21F00701AC46ACE8C009ACE838
:10028000C009ACE8C009ACE8C0098D46704710B59C
:100290000446AFF300802046BDE81040FFF76DBF75
:1002A00001491820ABBEFEE726000200704700009F
:1002B00070B5044600688168C943C90717D18168D1
:1002C00021F00101816000F0C1FB05460AE000BF9A
:1002D00000F0BCFB401B022804D920688068C043A2
:1002E000C00706D020688068C043C007F0D0002057
:1002F00070BDA06A40F01000A062E06A40F001000A
:10030000E062012070BDFEE7014800F0BFB90000C7
:10031000F0020020704700002DE9F05F30480278BD
:100320003049DFF8C4A0DFF8C490DFF8C4B0314E24
:100330000D680024B2B1696A2F4801800088A0F5D9
:10034000004004F007F907465146D9F8000004F0D0
:100350004DF90146584604F01BF8394604F046F9B9
:10036000306001E00470346024480178DFF8908048
:10037000244FC1B1D8F80000416A234801800088A9
:10038000A0F5004004F0E6F804465146D9F8000014
:1003900004F02CF90146584603F0FAFF214604F018
:1003A00025F9386001E004703C604FF40040686259
:1003B000D8F8001048620121386804F024FB134C7F
:1003C000216804F013F9124908600121306804F033
:1003D0001AFB216804F00AF90E490860BDE8F09F95
:1003E0000C0000208C01002000002F45040000209C
:1003F00000007A446C0000200E0000200D00002058
:10040000D4010020700000206A000020844A000807
:10041000440000204000002072B6FEE7F8B500243A
:10042000009490F824202546012A12D0012280F859
:1004300024204A681F23072A0DD20668776B521EB4
:1004400002EB820293409F430B6893401F43776304
:1004500019E00220F8BD06680D2A0AD2376BD21FB8
:1004600002EB820293409F430B6893401F43376324
:1004700009E0F76A0D3A02EB820293409F430B6852
:1004800093401F43F7620A68072306680A2A0AD3C3
:10049000F7680A3A02EB420293409F438B6893400D
:1004A0001F43F76008E0376902EB420293409F4325
:1004B0008B6893401F4337610A68102A01D0112AC4
:1004C00020D1124B02689A4217D193681B0219D4AB
:1004D000936843F4000393600968102912D10C4912
:1004E0000C4A0968B1FBF2F101EB8101490000E01F
:1004F000491E00910029FBD104E0816A41F02001EE
:100500008162012480F824502046F8BD0024014077
:10051000F000002040420F002DE9F0414FF00007AD
:1005200004003D467ED0A06A002628B9E66284F821
:100530002460204600F07EF82046FFF7B9FEA16A4D
:10054000C90600D420B1A06A40F01000A06269E0A2
:10055000A16A21F4885141F00201A1626268E16957
:10056000237B0A4347EA43010A43A1684FF480779B
:10057000B94209D0012907D05FF0000194F814C0F6
:10058000BCF1010F02D00AE03946F7E7F3B1A36AE4
:1005900043F02003A362E36A43F00103E3622368AC
:1005A000D3F804C02CF4694C4CEA010CC3F804C025
:1005B00021688B68DFF870C003EA0C0313438B607B
:1005C000A168B9420BD0012909D00CE0DFF85CC06A
:1005D000A3690CEB43330B4343F40061DFE7218A4B
:1005E0000D05A5F580152168CB6A23F470032B4314
:1005F000CB62216889680E4B1940914208D1E662AE
:10060000A16A21F0020141F00101A162BDE8F0817F
:10061000A06A20F0020040F01000A062E06A40F002
:100620000100E0620120F1E7FDF7E1FF00E0FFFFDC
:10063000FE0E1FFF00B585B00021009101910291CF
:10064000039100680E49884218D10E48816941F42F
:1006500000718161816901F400710491816941F047
:10066000040181618069694600F004000490202043
:10067000009003200190044800F0F2F805B000BD9E
:100680000024014000100240000801402DE9F05F05
:10069000C16B0C6801680B68D0F840C0042202FAF4
:1006A0000CF2494DDFF824A1494E4A4FDFF828B13A
:1006B000DFF828E122422CD05A072AD50A68920690
:1006C00003D40A6822F004020A600168A94201D139
:1006D000042219E0514501D1402215E0B14202D176
:1006E0004FF4806210E0B94202D14FF480420BE037
:1006F000594502D14FF4802206E0714502D14FF4F2
:10070000800201E04FF080622F4908394A60C16AD7
:100710003BE04FF0020808FA0CF818EA040F4FF01B
:1007200000094FF0010235D05FEA837832D50B68BB
:100730009B0605D40B6823F00A030B6080F8212088
:100740000168A94201D1022219E0514501D12022BC
:1007500015E0B14202D14FF4007210E0B94202D16B
:100760004FF400520BE0594502D14FF4003206E03D
:10077000714502D14FF4001201E04FF000721249AE
:1007800008394A6080F82090816A00291AD0BDE8B3
:10079000F05F0847082505FA0CF5254212D01B0723
:1007A00010D50B6823F00E030B6090F84010C36B5C
:1007B00002FA01F15960826380F8212080F82090CC
:1007C000016BE2E7BDE8F09F080002401C00024018
:1007D0003000024044000240580002406C000240D9
:1007E00030B528B308C8134914221944B1FBF2F1FB
:1007F0008900C16310498163022141771A6843F679
:10080000F0718A43D0E900142143D0E902452C431A
:1008100021430469214344692143846921431143ED
:10082000196000214163012242770177084630BDFB
:10083000012030BDF8FFFDBF0000024070B5044646
:1008400000F004F90546601C02D004480078044416
:1008500000F0FCF8401BA042FAD370BDE400002079
:100860002DE9F84FDFF8B8910024A9F1040B2346D5
:100870000F2709F1040AABF1040EC9E00125A540D8
:100880002A40AA427DD1674ED1F804C0ACEB0608DD
:10089000B44532D014DCBCF1030F3AD009DCBCF112
:1008A000000F2AD0BCF1010F1CD0BCF1020F31D1D6
:1008B0001DE0BCF1110F17D0BCF1120F2AD119E0C5
:1008C000B8F5881F19D006DCB8F5803F15D0B8F50B
:1008D000801F1FD111E0B8F5001F0ED0B8F5041F1E
:1008E00018D10AE0CB6815E0CB681B1D12E0CB687D
:1008F00008330FE0CB680C330CE08B682BB1012B75
:100900004FF0080303D0456104E0042302E00561D1
:1009100000E00023FF2A01D8064601E000F10406AA
:100920004FEA840501D9A5F12005D6F8008007FA21
:1009300005FC28EA0C0803FA05F548EA0508C6F89C
:1009400000804D68ED0062D5374DAE6946F0010676
:10095000AE61AD6924F0030605F001050095334D45
:1009600006EB050CDCF80850A607360F07FA06F868
:1009700025EA0805DFF8B880404503D14FF00008AC
:1009800017E044E0DFF8AC80404502D14FF00108A9
:100990000FE0DFF8A480404502D14FF0020808E0E4
:1009A000DFF89880404502D14FF0030801E04FF096
:1009B000040808FA06F848EA0508CCF808804D68EB
:1009C000D9F80060ED024D4601D5164300E096438C
:1009D0002E604D68DAF80060AD02554601D5164329
:1009E00000E096432E604D68DBF80060AD035D4685
:1009F00001D5164300E096432E604D68DEF8006096
:100A0000ED03754601D5164300E096432E60641C45
:100A10000D682A46E5407FF431AFBDE8F88F00004D
:100A200008040140000011100010024000000140C5
:100A300000080140000C014000100140001401407A
:100A40000AB1016170470904FBE7000001488068B2
:100A500070470000E400002070B5040011D0216848
:100A60004CF6CC400860216845F255500860D4E946
:100A7000000141602168A0688860FFF7E7FF054634
:100A80000DE0012070BD00BFFFF7E0FF401B2728ED
:100A900005D92068C068800701D0032070BD206898
:100AA000C0688007F0D121684AF6AA2008600020BB
:100AB00070BD00684AF6AA2101600020704700005E
:100AC000024881680278114481607047E400002088
:100AD000074810B5016841F010010160032000F0E3
:100AE00075F8002000F006F800F024F8002010BD92
:100AF0000020024070B50D4D04464FF47A712878FD
:100B0000B1FBF0F00A490968B1FBF0F000F052FBCC
:100B100048B9102C07D200222146501E00F036F8AA
:100B200000206C6070BD012070BD0000E40000205A
:100B3000F00000200C4808B5816941F00101816195
:100B4000816901F001010091C16941F08051C161E9
:100B5000C06900F0805000900448416821F0E061D5
:100B600041F00071416008BD0010024000000140EA
:100B7000002809DB00F01F0201219140400980009C
:100B800000F1E020C0F8001170470000F0B40E4BF7
:100B90001B680C46C3F30223C3F10705042D00D9DB
:100BA0000425191D072901D2002300E0DB1E0126C0
:100BB00006FA05F1491E214099409E40761E1640D6
:100BC0003143F0BC02F09DB80CED00E0064900F0A6
:100BD000070208684FF6FF03184040EA0220034A64
:100BE00010430860704700000CED00E00000FA05BB
:100BF0002DE9F84305460078354CC00754D0E0692C
:100C00000026C00008D4E06940F08050E061E0694F
:100C1000012600F0805000902E480168C90512D4CA
:100C20000168804641F480710160FFF70FFF0746BD
:100C300005E000BFFFF70AFFC01B642823D8D8F8DF
:100C40000000C005F6D5206A10F4407021D0A988B4
:100C500001F4407181421CD0206A1F49012220F416
:100C600040700A6000220A602062C00711D0FFF7BE
:100C7000EDFE074641F2883808E000BFFFF7E6FEC8
:100C8000C11B414502D90320BDE8F883206A8007D3
:100C9000F4D5206A696820F44070084320621EB1D0
:100CA000E06920F08050E0612878800705D5606811
:100CB000A96820F44040084360602878C00605D544
:100CC0006068E96820F48000084360600020DBE78A
:100CD0000010024000700040400442422DE9F047FD
:100CE0000F46050061D0434E306800F00700B8425F
:100CF00009D2306820F0070038433060306800F0D7
:100D00000700B84251D128683B4C810712D54007F3
:100D100003D5606840F4E06060602878000703D580
:100D2000606840F4605060606068A96820F0F0007E
:100D3000084360602878C00728D06868012810D070
:100D40002168022810D0890700292EDA616821F075
:100D5000030101436160FFF779FE804641F2883963
:100D60000DE021688903EFE78901EDE7FFF76EFEEB
:100D7000A0EB0801494502D90320BDE8F08760686F
:100D8000696800F00C00B0EB810FEFD1306800F023
:100D90000700B8420BD9306820F0070038433060B4
:100DA000306800F00700B84201D00120E5E728785C
:100DB000400705D56068E96820F4E060084360609A
:100DC0002878000706D56068296920F4605040EA59
:100DD000C100606000F038F86168084AC1F303118F
:100DE000515CC8400649086006480068FFF782FE6B
:100DF0000020C2E70020024000100240B24A000872
:100E0000F0000020E8000020044805490068496817
:100E1000044AC1F30221515CC8407047F000002031
:100E200000100240C24A00080448054900684968A9
:100E3000044AC1F3C221515CC8407047F000002051
:100E400000100240C24A00080E4A51680E4801F0E4
:100E50000C03042B11D0082B0FD10C48C1F3834392
:100E6000C903C05C0AD55168084AC1F34041921ECB
:100E7000515C054A5043B0FBF1F0704704494843C8
:100E8000704700000010024000127A00A24A0008D9
:100E900000093D002DE9F84F040070D02078C04DC6
:100EA000C00749D06868C0F38100012807D068688E
:100EB000C0F38100022809D16868C00306D52868FC
:100EC000800339D560680028E7D035E06068B0F568
:100ED000803F0BD010B1B0F5A02F11D0286820F4BE
:100EE00080302860286820F4802002E0286840F4E0
:100EF00080302860606890B1FFF7A8FD06460AE0E0
:100F0000286840F480202860F0E700BFFFF79EFDCE
:100F1000801B642873D828688003F7D50CE0FFF79E
:100F200095FD064605E000BFFFF790FD801B642895
:100F3000F0D828688003F7D420789A4E80074FF0C5
:100F400001094FF0000839D5686810F00C0F07D080
:100F50006868C0F38100022809D16868C00306D41C
:100F60002868800714D52069012808D110E020697D
:100F7000B0B1C6F80090FFF769FD074605E00AE149
:100F8000FFF764FDC01B0228C4D828688007F7D586
:100F90002868616920F0F80040EAC10028600DE08F
:100FA000C6F80080FFF752FD074604E0FFF74EFD4C
:100FB000C01B022823D828688007F7D420780007B0
:100FC0002CD57948A169D9B1C0F80090FFF73EFD52
:100FD000074604E0FFF73AFDC01B02280FD8686AF5
:100FE0008007F7D571484FF4FA510068B0FBF1F073
:100FF000009000BF0098411E0091FAD20EE080E000
:10100000C0F80080FFF722FD074604E0FFF71EFD51
:10101000C01B022875D8686A8007F7D4207840077B
:1010200060D5E8690027C00008D4E86940F0805026
:10103000E861E869012700F0805000905C48016891
:10104000C90513D40168834641F480710160FFF73C
:10105000FDFC824606E000BFFFF7F8FCA0EB0A00AB
:1010600064284ED8DBF80000C005F5D5E0680128FB
:101070000AD008B1052813D0286A20F001002862A0
:10108000286A20F0040002E0286A40F0010028628B
:10109000E06841F2883B98B1FFF7D8FC82460BE04C
:1010A000286A40F004002862EEE700BFFFF7CEFC9C
:1010B000A0EB0A0159455AD8286A8007F6D50CE0FA
:1010C000FFF7C4FC824605E0FFF7C0FCA0EB0A0175
:1010D00059454CD8286A8007F6D41FB1E86920F03A
:1010E0008050E861E06988B36968C1F38101022931
:1010F00044D00228C6F8608004D0FFF7A7FC04465D
:1011000038E034E0FFF7A2FC074604E0FFF79EFC5E
:10111000C01B02282BD828688001F7D4206AB0F5BC
:10112000803F05D16868A16820F4003008436860FA
:10113000D4E908010843696821F474110843686020
:10114000C6F86090FFF782FC044606E025E000BF89
:10115000FFF77CFC001B022809D828688001F7D51E
:101160001BE000BFFFF772FC001B022802D903201E
:10117000BDE8F88F28688001F4D40EE00128F7D08C
:101180006868226A00F48031914204D1616A00F4F7
:101190007010884201D00120EAE70020E8E7000053
:1011A000001002400000424280044242F000002051
:1011B0000070004010B5401EB0F1807F01D30120C7
:1011C00010BD4FF0E02460610F21601701F099FD20
:1011D0000020A06107202061002010BD70477047EB
:1011E00070B590F83C20012A26D0012480F83C40BC
:1011F000022280F83D2003685A689D6822F070063C
:101200000A6832435A600D4B02689A4208D0B2F124
:10121000804F05D00A4B9A4202D00A4B9A4204D121
:10122000496825F080031943916080F83D40002112
:1012300080F83C10084670BD022070BD002C0140B3
:10124000000400400008004090F83D10012901D042
:1012500001207047022180F83D100168CA6842F001
:101260000102CA6000680B49884208D0B0F1804F83
:1012700005D00949884202D00849884204D18168D2
:1012800001F00701062903D0016841F00101016066
:1012900000207047002C014000040040000800407E
:1012A0002DE9F0410D46040003D094F83D0018B13B
:1012B00008E00120BDE8F081002084F83C002046D1
:1012C00000F040F8022084F83D002068816844F274
:1012D000070291438160211D206801F079FA22689C
:1012E00090689169166A2B68AF69034340F2033036
:1012F000814341EA0721A868EF6908434FF6FC41A2
:101300008843E96840EA0720014328692F6A000101
:1013100040EA0730084369686D6926F0220646EA0C
:101320000515294393602268906154F8460B0162C9
:10133000012004F81F09E0752076E0762077A0757B
:101340000020B7E710B586B000210091019102910D
:1013500003910368234901222348B3F1804F23D02E
:10136000224CA3421ED1CB6943F00203CB61CB696F
:1013700003F0020304938B6943F004038B618969D2
:10138000029201F004010491C02100916946FFF727
:1013900067FA002201211D20FFF7F8FB5FF01D0016
:1013A000FFF7E6FB06B010BDCB6943F00103CB614C
:1013B000CB6903F0010304938B6943F004038B6151
:1013C0008969029201F004010491032100916946A8
:1013D000FFF746FA002201211C20FFF7D7FB1C2053
:1013E000DEE7000000100240000801400004004059
:1013F00070B590F83E60044690F83F5090F8423047
:1014000090F84320022021B1042914D0012E25D1C7
:101410001EE0012E22D1012B20D184F83E0084F859
:10142000420001220021206801F008FA2068C1680A
:1014300041F002012FE0012D10D1012A0ED184F8D4
:101440003F0084F843000421206801F0F7F91EE012
:10145000012D03D1012B01D1012A01D0012070BD42
:1014600084F83E0084F83F0084F8420084F843008A
:1014700001220021206801F0E1F901220421206805
:1014800001F0DCF92068C16841F00201C160206808
:10149000C16841F00401C1602068016841F00101A8
:1014A0000160002070BD00002DE9F05F0446006877
:1014B0008F4A01258F49904276D10846227FDFF876
:1014C00038B28E4E00784FF0000944F61F674FF097
:1014D0007A5A012A14D0022A68D0042A62D1884696
:1014E000002873D001285DD10821204600F070FC4F
:1014F000C8F80C00D8F80810884268D9401AC4E02F
:10150000884668B101284DD10021204600F060FCDA
:10151000C8F81C00D8F81810884213D9401A18E0EF
:101520000021204600F054FCC8F8180088F800504C
:101530002068016A21F00A0101622068016A41F015
:10154000020156E0814202D8D8F8280003E0791A57
:101550000844C8F8280002F073FC5A46684B02F0B1
:1015600083FC0022674B02F07FFC02F0E9F902F0F5
:10157000D5F8654902F00CFF514602F095FEC8F817
:10158000340088F800902068016A21F00A010162A5
:101590002068016A01623068C16821F00201C160FF
:1015A00088F80350BDE8F09F96E0FFE7884678B1E1
:1015B0000128F7D10421204600F00AFCC8F81400E5
:1015C000D8F81010884216D9401A1BE044E055E0C4
:1015D0000421204600F0FCFBC8F8100088F80050F9
:1015E0002068016A21F0A00101622068016A41F0CF
:1015F00020010162D6E7814202D8D8F8240003E036
:10160000791A0844C8F8240002F01AFC5A463C4BE8
:1016100002F02AFC00223B4B02F026FC02F090F97B
:1016200002F07CF8384902F0B3FE514603F016F997
:10163000C8F8300088F800902068016A21F0A00105
:1016400001622068016A01623068C16821F004010A
:10165000C16088F80250A5E70821204600F0B8FBD9
:10166000C8F8080088F800502068016A21F4007169
:1016700001622068016A41F40071BAE7814202D830
:10168000D8F8200003E0791A0844C8F8200002F0D6
:10169000D7FB5A461A4B02F0E7FB0022194B02F027
:1016A000E3FB02F04DF902F039F8174902F070FE41
:1016B000C8F82C0088F800902068016A21F40071B5
:1016C00001622068016A01623068C16821F0080186
:1016D000C16088F8015065E7B0F1804F04D00B4A33
:1016E000904287D14D715DE7406AC8800D7159E71E
:1016F000002C0140080000209CC420B044010020C0
:101700007268913F00002440000020410004004026
:101710002DE9F041054690F83C0000260C460128D2
:1017200010D0012085F83C0072B1042A1CD0082A90
:101730002CD00C2A50D00126002085F83C003046E1
:10174000BDE8F0810220FBE7D4E90012E3682868D5
:1017500001F024F92868816921F00C018161286871
:101760008169A26811430FE0D4E90012E368286898
:1017700001F040F92868816921F44061816128689D
:101780008169A26841EA02218161D5E72868D4E92C
:10179000002C277B036A016A21F480710162C16910
:1017A00023F4007321F0030141EA0C0121F0F00C55
:1017B00039074FF400774CEA116107EA02221A4315
:1017C000C16102622868C16921F00C01C161286809
:1017D000C169A26811432BE02868D4E90021E768B9
:1017E000036AD0F820C02CF4805CC0F820C0D0F888
:1017F0001CC023F400532CF4407C4CEA012121F45A
:10180000704C4FF6FF7101EA07314FF4005741EA7F
:101810000C0107EA02321A43C16102622868C169F9
:1018200021F44061C1612868C169A26841EA0221CE
:10183000C16181E710B5040003D094F83D0010B1F8
:1018400007E0012010BD002084F83C00204600F095
:101850001FF8022084F83D00211D206800F0B8FF29
:10186000012084F8460084F83E0084F83F0084F8A4
:10187000400084F8410084F8420084F8430084F872
:10188000440084F8450084F83D00002010BD0000AD
:1018900000B585B00021009101910291039100688B
:1018A0001649884227D11648816941F40061816157
:1018B000816901F400610491816941F00401816151
:1018C0008069694600F0040004904FF4E0600090E5
:1018D0000C48FEF7C5FF002211461920FFF756F904
:1018E0001920FFF745F9002201211B20FFF74EF9CF
:1018F0001B20FFF73DF905B000BD0000002C0140A2
:10190000001002400008014030B50446002551B1E6
:1019100004290DD0082910D094F8410094F84520EE
:10192000012811D10EE094F83E0094F84220F7E728
:1019300094F83F0094F84320F2E794F8400094F8BC
:101940004420EDE7012A01D0012030BD022059B129
:10195000042912D0082919D084F8410084F84500E0
:101960000C2938D0012534E084F83E0084F8420088
:101970002068C26842F0020210E084F83F0084F858
:1019800043002068C26842F0040207E084F8400087
:1019900084F844002068C26842F00802C260012254
:1019A000206800F04BFF0E492068884208D0B0F153
:1019B000804F05D00B49884202D00B49884204D1A0
:1019C000816801F00701062903D0016841F0010197
:1019D0000160284630BD2068C26842F01002DDE791
:1019E000002C0140000400400008004070B504468F
:1019F000006801694FF00005C943890715D4C16823
:101A0000C943890711D4E91E0161012020772068AC
:101A100080698007204602D0FFF746FD04E000F011
:101A2000BFF8204600F064F9257720680169C943B2
:101A3000490717D4C168C943490713D46FF004019B
:101A40000161022020772068806910F4407F2046E1
:101A500002D0FFF729FD04E000F0A2F8204600F0D4
:101A600047F9257720680169C943090716D4C16879
:101A7000C943090712D46FF00801016104202077DF
:101A80002068C0698007204602D0FFF70DFD04E002
:101A900000F086F8204600F02BF9257720680169D0
:101AA000C943C90617D4C168C943C90613D46FF026
:101AB00010010161082020772068C06910F4407F80
:101AC000204602D0FFF7F0FC04E000F069F8204661
:101AD00000F00EF9257720680169C943C90708D1CC
:101AE000C168C943C90704D1891E0161204600F0BD
:101AF0004FF920680169C943090609D4C168C9437F
:101B0000090605D46FF0800101612046FFF766FBEE
:101B100020680169C943490609D4C168C943490617
:101B200005D46FF040010161204600F066F920689D
:101B30000169C94389060BD4C168C943890607D422
:101B40006FF0200101612046BDE87040FFF747BB00
:101B500070BD000000B585B0002100910191029197
:101B6000039100680B49884211D10B48816941F00B
:101B7000080181618069694600F008000490C02076
:101B800000900220019003900448FEF769FE05B022
:101B900000BD00000008004000100240000C0140A1
:101BA000704770B5044690F83C0000260D460128A9
:101BB0000FD0012084F83C006AB1042A1DD0082A05
:101BC0002FD00C2A3FD00126002084F83C0030465C
:101BD00070BD022070BD206800F03EFE2068816963
:101BE00041F0080181612068816921F0040181616F
:101BF000206881692A69114311E0206800F054FED1
:101C00002068816941F4006181612068816921F463
:101C100080618161206881692A6941EA02218161CC
:101C2000D2E7206800F06CFE2068C16941F008012D
:101C3000C1612068C16921F00401C1612068C169E6
:101C40002A69114311E0206800F086FE2068C1690E
:101C500041F40061C1612068C16921F48061C16102
:101C60002068C1692A6941EA0221C161ACE710B567
:101C7000040003D094F83D0010B107E0012010BD2E
:101C8000002084F83C00204600F01EF8022084F872
:101C90003D00211D206800F09BFD012084F84600D6
:101CA00084F83E0084F83F0084F8400084F8410046
:101CB00084F8420084F8430084F8440084F8450026
:101CC00084F83D00002010BD08B500680649884230
:101CD00008D10648C16941F00401C161C06900F042
:101CE0000400009008BD0000000800400010024001
:101CF0007047000010B50446022249B104290ED0F5
:101D0000082913D094F84100012816D0012010BDF5
:101D100094F83E000128F9D184F83E200FE094F8B1
:101D20003F000128F2D184F83F2008E094F84000F9
:101D30000128EBD184F8402001E084F84120012201
:101D4000206800F07BFD0F492068884203D1426C77
:101D500042F4004242642068884208D0B0F1804FCB
:101D600005D00949884202D00849884204D18168D7
:101D700001F00701062903D0016841F0010101606B
:101D8000002010BD002C014000040040000800406D
:101D900010B50D4900680968884214D1FEF7BCFAF5
:101DA0000A4CA16B206C00F0E3FAA064E16B606C5C
:101DB00000F05CFAE064A06C00F056FCE06CBDE85A
:101DC000104000F019BC10BD4401002008000020A4
:101DD0000246002041B1042909D008290AD00C2963
:101DE00001D11068006C70471068406B7047106834
:101DF000806B70471068C06B7047704770B5040007
:101E000004D094F84100002510B106E0012070BD17
:101E100084F84050204600F023F8242084F8410044
:101E20002068C16821F40051C160204600F0FEFD29
:101E30002068016921F4904101612068416921F025
:101E40002A0141612068C16841F40051C1606564A4
:101E5000202084F8410084F842006563002070BDB2
:101E600070B586B00025064600950195029503954C
:101E700000681F49884239D11E49C86940F40030C2
:101E8000C861C86900F400300490886940F004001B
:101E900088618869184C00F00400049004200090C8
:101EA000022001900320039069462046FEF7D8FCEB
:101EB0000820CDE90005694620460295FEF7D0FCD2
:101EC0000F4C0E4820601020C4E901058020E0601E
:101ED000800020618000C4E905052046E561FEF729
:101EE0007FFC08B1FEF798FAB463666206B070BD75
:101EF0000044004000100240000801408000024001
:101F0000F0020020FEE7000010B5064C012210216F
:101F10002046FEF795FD20460022BDE81040202116
:101F2000FEF78EBD000C01403EB500241148009420
:101F3000019402940E4984600160047304750125C4
:101F400005614FF460214460C161FEF7E5FA08B114
:101F500072B6FEE70520CDE9000569460294054802
:101F6000FEF75CFA002801D072B6FEE73EBD000025
:101F70000024014008010020144808B5416941F0DF
:101F8000010141614069124900F0010000901148CF
:101F900001604FF480414160402181608021C16037
:101FA000490001618900416100218161C161FEF741
:101FB00017FC08B172B6FEE7002211461120FEF7A9
:101FC000E5FDBDE808401120FEF7D2BD001002403B
:101FD00008000240AC0200202DE9F04186B0002448
:101FE00025480094019402940394816941F0100102
:101FF0008161816901F010010491816941F0200142
:102000008161816901F020010491816941F004013D
:102010008161816901F004010491816941F0080145
:1020200081618069012200F00800144F550304907B
:1020300029463846FEF704FDDFF844804EF6304668
:10204000002231464046FEF7FBFC0320CDE902406A
:1020500000950125694601953846FEF701FC0220EE
:10206000CDE90240CDE9006569464046FEF7F8FB40
:1020700006B0BDE8F08100000010024000100140F1
:10208000000C014010B586B000242148059404944A
:102090000094019402941D49039401604721C0E912
:1020A000011444F61F61C0E9031444618461FFF721
:1020B000C1FB08B172B6FEE7049404A91448059464
:1020C000FFF78EF808B172B6FEE70120CDE90040B7
:1020D0000294002269460E480394FFF719FB08B1E9
:1020E00072B6FEE7042269460948FFF711FB08B102
:1020F00072B6FEE7082269460548FFF709FB00288B
:1021000001D072B6FEE706B010BD0000002C014001
:102110004401002010B58CB024216846FEF754F825
:102120000024154809944FF080410A94C0E9001436
:102130004FF6FF71C0E90241046184610320CDE9DB
:1021400000040120CDE902040494CDE90540079480
:10215000694609480894FFF7A3F808B172B6FEE78C
:10216000099409A904480A94FFF73AF8002801D015
:1021700072B6FEE70CB010BD8C01002010B58CB01B
:1021800024216846FEF720F80024164809941449D3
:102190000A94C0E900144FF6FF71C0E902410461DE
:1021A00084610320CDE900040120CDE902040494F8
:1021B000CDE90540079469460A480894FFF770F88E
:1021C00008B172B6FEE7099409A906480A94FFF718
:1021D00007F8002801D072B6FEE70CB010BD000071
:1021E00000040040D401002010B58AB000240794F8
:1021F0001C2168460894FDF7E7FF1A48184901605A
:102200000821C0E9011440F28F11C0E90314846170
:10221000FFF72DFD08B172B6FEE7079407A9114834
:102220000894FEF7DDFF08B172B6FEE76020CDE945
:1022300000040294002269460A480494FFF7B1FCA6
:1022400008B172B6FEE7042269460648FFF7A9FC0A
:1022500008B172B6FEE70348FFF77CFC0AB010BD78
:10226000000800401C020020FEE7FEE72DE9F05FB9
:102270000A463449344B354E0D681D6033680B6097
:10228000DFF8B8B02E4C9846114602F0E7FA074640
:1022900030602F492068086081460121404602F0E5
:1022A000B2FB394602F0D0FA294601F0FDFFDFF813
:1022B000A8A005462749DAF8000002F069F80146AF
:1022C0002648006802F064F8294602F08FF90646B5
:1022D0004146384601F0E8FF05462149DAF800009A
:1022E00002F056F81F49096802F080F9294602F009
:1022F0007DF905464146384602F0B0FA1A490968A8
:1023000002F074F9494601F0CFFF294601F0CCFFF5
:10231000314601F0C9FF20605D46DBF8001002F095
:1023200031FA08D3114D2068296802F02BF902D345
:102330002068BDE8F09F28682060FAE7904A00080E
:10234000A0000020AC000020B0000020A800002069
:10235000A400002000007A44040000209C0000201B
:102360000000FA449800002094000020944A0008DD
:102370002DE9F05F0A463449344B354E0D681D6037
:1023800033680B60DFF8B8B02E4C9846114602F067
:1023900065FA074630602F492068086081460121B0
:1023A000404602F030FB394602F04EFA294601F071
:1023B0007BFFDFF8A8A005462749DAF8000001F006
:1023C000E7FF01462648006801F0E2FF294602F0D7
:1023D0000DF906464146384601F066FF054621499B
:1023E000DAF8000001F0D4FF1F49096802F0FEF896
:1023F000294602F0FBF805464146384602F02EFA1F
:102400001A49096802F0F2F8494601F04DFF2946E1
:1024100001F04AFF314601F047FF20605D46DBF8DE
:10242000001002F0AFF908D3114D2068296802F0BE
:10243000A9F802D32068BDE8F09F28682060FAE779
:10244000884A0008800000208C00002090000020B6
:10245000880000208400002000007A44040000204E
:102460007C0000200000FA44780000207400002066
:102470008C4A00082DE9F05F0A463449344B354E4A
:102480000D681D6033680B60DFF8B8B02E4C9846BD
:10249000114602F0E3F9074630602F4920680860D2
:1024A00081460121404602F0AEFA394602F0CCF9ED
:1024B000294601F0F9FEDFF8A8A005462749DAF819
:1024C000000001F065FF01462648006801F060FF4A
:1024D000294602F08BF806464146384601F0E4FEF4
:1024E00005462149DAF8000001F052FF1F4909684A
:1024F00002F07CF8294602F079F805464146384654
:1025000002F0ACF91A49096802F070F8494601F086
:10251000CBFE294601F0C8FE314601F0C5FE206021
:102520005D46DBF8001002F02DF908D3114D20684C
:10253000296802F027F802D32068BDE8F09F2868D8
:102540002060FAE7984A0008C8000020D400002064
:10255000D8000020D0000020CC00002000007A44E9
:10256000F4000020C40000200000FA44C000002055
:10257000BC0000209C4A000870B5044617484FF084
:10258000FF31006802F03FFA154901F001FF2146D2
:1025900002F02CF81349044608601348416880682B
:1025A0000D4601F0F5FE214602F020F804462946CA
:1025B0004FF07E5001F0ECFE0C49096802F016F86D
:1025C0000546214601F070FE09490860214628466B
:1025D00002F044F90749086070BD0000844A000811
:1025E0000000C84360000020F4000020B800002074
:1025F000480000204C0000202DE9F041154E164FF8
:10260000DFF85880164C0546B0F5000F02DA15F1D8
:10261000FF4F0FD3FFF778FC284601F019FE324632
:102620003B4601F021FC0022434601F0BBF901F0DA
:1026300087F96060206801F06DFF0A4D80B229685B
:102640008863606801F066FF296880B24863BDE86E
:10265000F0810000DF38A593D750DE3F00406A408C
:10266000000100201C0200202DE9F041124E134F02
:10267000DFF84C80134D0446B0F5000F04DA14F176
:10268000FF4F01D228680FE000F022F8204601F049
:10269000DFFD32463B4601F0E7FB0022434601F0F6
:1026A00081F901F04DF9286001F034FF064980B24C
:1026B00009688863BDE8F081DF38A593D750DE3F15
:1026C00000406A40000100201C020020704700000A
:1026D00010B5074C00224FF480612046FEF7B0F998
:1026E00020460122BDE81040D102FEF7A9B9000042
:1026F000000C01407047000006480188491C018019
:102700000188642904D1044A01211170002101804B
:10271000FEF7D6B9E00000200000002030B593B0ED
:1027200028216846FDF750FD14210AA8FDF74CFD4D
:1027300000250F9509200121109500901195129503
:102740004FF4803004910691CDE901050224CDE9D2
:1027500007404FF4E01009906846FEF79BFB08B174
:1027600072B6FEE70AA90F2081E831004FF48060BD
:10277000CDE90D0502210AA8FEF7B0FA08B172B63C
:10278000FEE74FF4004011900F940FA8FEF730FAC7
:10279000002801D072B6FEE713B030BD70470000CC
:1027A0000148FFF723B90000440100200148FFF76A
:1027B0001DB90000440100200148FFF717B90000CF
:1027C0008C0100200148FFF711B90000D40100205E
:1027D000F0B50268164B174C174D4FF080479842E2
:1027E00005D0B84203D0A04201D0A84203D122F0C4
:1027F00070064A683243984205D0B84203D0A042DE
:1028000001D0A84203D122F44074CA6822434C6923
:1028100022F08002224302608A68C2620A688262F1
:10282000984201D10969016301214161F0BD0000B5
:10283000002C0140000400400008004010B501F0E9
:102840001F030121046A99408C430462016A9A4083
:102850001143016210BD000030B5036A026A22F024
:10286000010202624268846924F073050C682C43FB
:1028700023F002058B682B430A4DA8420BD123F0AD
:102880000805CB6822F440722B434D6923F0040302
:1028900015438A692A43426084614968416303623F
:1028A00030BD0000002C014030B5026A036A23F0FD
:1028B00010030362436884690D6824F4E64444EA23
:1028C00005248D6822F0200242EA05120B4DA84231
:1028D0000ED1CD6822F0800242EA05124D6923F440
:1028E000406343EA85038D6922F0400243EA850391
:1028F0004360846149688163026230BD002C0140FD
:1029000030B5036A026A22F4807202624268C469C6
:1029100023F4007324F073050C682C438D6843EA9C
:1029200005230C4DA8420ED1CD6823F4006343EA81
:1029300005234D6922F4405242EA05128D6923F4C1
:10294000806342EA05124260C4614968C163036260
:1029500030BD0000002C014030B5046A026A22F448
:10296000805202624268C3690D6823F4E64343EA79
:1029700005238D6824F4005444EA0534064DA8422A
:1029800004D14D6922F4804242EA85124260C3615B
:1029900049680164046230BD002C014070B5056ACD
:1029A000046A24F00104046284690F4EB04208D026
:1029B000B0F1804F05D00D4EB04202D00C4EB04267
:1029C00003D124F00304144301E044F001041A0786
:1029D00024F0F00444EA126225F00A0301F00A012F
:1029E00019438261016270BD002C01400004004067
:1029F0000008004030B5046A056A25F0100505623C
:102A0000856925F4407545EA022222F470454FF6A7
:102A1000FF7202EA033224F0A0032A43A02404EA4E
:102A2000011119438261016230BD000070B5044696
:102A300000680169E26821F4405111430161216994
:102A4000A0680843616908432168CA6841F20C63C1
:102A50009A430243CA6020684169A26921F4407127
:102A6000114341611E492068884202D1FEF7DCF91A
:102A700001E0FEF7C9F900EBC00101EB001260684C
:102A800064218000B2FBF0F3B3FBF1F36FF01806A2
:102A90007343B2FBF0F5B2FBF0F605EB830532238E
:102AA00003EB0515B5FBF1F5B6FBF1F605F0F00506
:102AB00005EB0615B2FBF0F6B2FBF0F0B0FBF1F05F
:102AC0006FF01802504306EB800003EB0010B0FBE0
:102AD000F1F0216800F00F002844886070BD00000C
:102AE000003801402DE9F0411C4D00242C700122DA
:102AF0001B4FD60331463846FDF7A2FF0120FDF7F4
:102B00009DFE002231463846FDF79AFF15480068C1
:102B1000C16841F00801C16028780028FCD0124843
:102B2000124E01220568124B12481349B5420ADAC7
:102B300005786D1C05700578012D02D902700C70A6
:102B40001A70BDE8F0810D786D1C0D700D78012DA7
:102B5000F7D90A7004701C70F3E700000900002028
:102B6000000C0140440100203400002000004842D5
:102B70006600002064000020650000202DE9F0417F
:102B8000134C002525700122124F5603314638465A
:102B9000FDF756FF0120FDF751FE00223146384671
:102BA000FDF74EFF0C480068C16841F00201C160AA
:102BB00020780028FCD00948094A01680948914258
:102BC00003DD01210170BDE8F0810570FBE7000025
:102BD0000B000020000C0140440100203C000020BC
:102BE0000000A042680000202DE9F041134C0025B0
:102BF00025700122124F960331463846FDF720FF1B
:102C00000120FDF71BFE002231463846FDF718FF74
:102C10000C480068C16841F00401C16020780028B8
:102C2000FCD00948094A01680948914203DD0121A5
:102C30000170BDE8F0810570FBE700000A0000208C
:102C4000000C014044010020380000200000A04298
:102C5000670000202DE9F041FFF744FFFFF7C4FFB4
:102C6000FFF78CFF164D174E2968306801F0F6FD0E
:102C7000154901F08DFB01F0EBFA00F073FB00F059
:102C80005FFE1249086001F0E3FA00F07BFC0446A5
:102C90000F462968306801F007FB4FF0FF3101F063
:102CA000B2FE01F0D5FA22463B4601F0DDF800F015
:102CB00047FE07490860BDE8F0410648FDF7F9BE48
:102CC0003C000020380000200000C04058000020D8
:102CD0005C00002038010020FEE7490050EAC120D6
:102CE00018BF04204A0D18BF40F0010040F2FF72E7
:102CF000B2EB515F08BF40F00200012808BF052079
:102D000070470907090E002804DB00F1E02080F875
:102D10000014704700F00F0000F1E02080F8141D4F
:102D2000704700002DE9F74F144694B00021C4E924
:102D300002111599079121F00045C9498D4206DC21
:102D40001599C4E9000117B00020BDE8F08FC5490E
:102D5000DFF814A3A9423CDD0799C44E0029C44FF3
:102D6000C44A1599534619DD01F088F9554506D036
:102D7000C14AC24B01F082F9C4E900010AE04FF0F8
:102D8000D352BE4B01F07AF932463B4601F076F958
:102D9000C4E9000117B00120BDE8F08F00F002FE89
:102DA000554506D0B44AB54B00F0FCFDC4E900011E
:102DB0000AE04FF0D352B14B00F0F4FD32463B46EF
:102DC00000F0F0FDC4E9000117B04FF0FF30BDE89E
:102DD000F08FAB49A942159978DB21F00041834679
:102DE0008846A84AA84B01F03FF80022A74B00F004
:102DF000D9FD00F0DFFF099001F00BF806460F4601
:102E00009C4A534601F030F843465A4601F02AF9ED
:102E100080468A46984A994B3046394601F024F854
:102E20002A0D01250B924246534601F01BF9032D52
:102E3000C4E9000139D00B98C1F30A51401A05EBDF
:102E400045111139814230DA9148C346784400EB8C
:102E50000510CDF80CA00C90D0E90023304639467F
:102E600001F002F802460B46049106905846039979
:102E700001F004F980468A4602460B4658460399FB
:102E800001F0FCF8049B069A01F0F8F883460C98D0
:102E900003913946D0E90223304600F0E5FF5A4657
:102EA000039B01F0EBF86D1CBDE707980028A2BF5B
:102EB000099817B0BDE8F08F616881F0004161604A
:102EC000099817B04042BDE8F08FFFE78446159897
:102ED000C1F31301C0F30A50A0F2F5304FEA6018B5
:102EE00000F01F06C6F12000139000200690079006
:102EF00041F4801E05206D4676B1664A08EB00015C
:102F00007A4452F8213002EB8101B3404A681399A8
:102F100022FA01F1194305E05F4908EB0002794408
:102F200051F82210A1FB0E27A1FB0C131A449A4260
:102F300034BF0123002303EB070A05EB8003D3E929
:102F400001B70F448F4234BF0121002193448B44C9
:102F500011B1934502D903E0934501D2012100E06C
:102F60000021C3E901B7514445F82010011EA0F12A
:102F70000100C1DC0298059F00F10050800F129003
:102F80000298DDE90356800000F043FF834628469F
:102F90000D9100F055FF6FF01D0201F006FDCDE927
:102FA0000E01304600F04CFF6FF03D0201F0FDFCD9
:102FB00080468A46384600F043FF6FF05D0201F01C
:102FC000F4FC074642465346119100F0EBFCDDE964
:102FD0000E2300F0E7FC5A460D9B00F0E3FC0025B1
:102FE0000E465A4628460D9B01F048F8DDE90E23AF
:102FF00001F044F84246534601F040F83A46119B2E
:1030000001F030F8DFF898A0244A534600F02CFF76
:1030100007468846234A244B3146284600F024FFC1
:103020003A46434600F0BEFC074688464FF0A842A9
:1030300053463146284600F017FF3A46434600F013
:10304000B1FC159A12F0004F04D0129A81F00041A1
:1030500052421292C4E90001129817B0BDE8F08FF5
:10306000FB21E93F7CD90240FB21F93F7370032E1D
:103070008A19A33B000040543163621A61B4D03D09
:10308000FB21394183C8C96D305FE43F0000E03F58
:10309000481D0000C41C0000A61C0000182D44544C
:1030A000FB21F93D3326A611460B113C2DE9FF4DBE
:1030B00021F0004807460C46B8F1795F08DA00F0C5
:1030C00079FE002801BF0020324904B0BDE8F08D30
:1030D0003A4623461046194600F0C6FE054602460B
:1030E0002D480E460B460621784400F05DF82A462E
:1030F000334600F0B9FEDDE9022382468B463846AE
:10310000214600F0B1FE04460F4652465B46284673
:10311000314600F0A9FE22463B4600F0AFFF0746CD
:103120008A464FF0FF322846314601F03EFC1B4AEA
:1031300090450ADA3A46534600F0A0FF04B0002258
:10314000BDE8F04D134B00F08DBF154A4245A8BFB6
:10315000A8F500154FF00004B8BF124D22462B46CB
:1031600000F08CFF0646884622462B46002009497F
:1031700000F084FF04460D463A4653463046414629
:1031800000F07CFF04B022462B46BDE8F04D00F075
:1031900069BF00000000F03F7C1A00003333D33FCA
:1031A0000000E93F0000D23F2DE9F0414F1E00EB47
:1031B000C7010446D1E9000115461E4637F0060254
:1031C0000DD02A46334600F04FFE7F1E04EBC703A6
:1031D000D3E9002300F0E6FB37F00602F1D1022F1D
:1031E00025D0042F13D0062F18BFBDE8F0812A4642
:1031F000334600F039FED4E90A2300F0D3FB2A4617
:10320000334600F031FED4E9082300F0CBFB2A4618
:10321000334600F029FED4E9062300F0C3FB2A461A
:10322000334600F021FED4E9042300F0BBFB2A461C
:10323000334600F019FED4E9022300F0B3FB2A461E
:10324000334600F011FED4E90023BDE8F04100F060
:10325000A9BB00002DE9FF4D054621F0004084B0D8
:103260000C46B0F1795F0BDA2846FFF736FD0428EB
:1032700008BF00F06FF8284608B02146BDE8F08D81
:103280002A460B46104600F0EFFD06460F462A463A
:10329000234600F0E9FD804626488A4632463B46F2
:1032A00005217844FFF780FF83461098029160B3B0
:1032B000214A224B4046514600F0D6FDCDE900019F
:1032C0005A4640465146029B00F0CEFD8246884653
:1032D000DDE906014FF0FF3201F067FB524643463D
:1032E00000F0CCFE32463B4600F0BEFDDDE9062391
:1032F00000F0C4FEDDE9002300F0C0FE08B02A465D
:103300002346BDE8F04D00F0ADBE0B465A463046B0
:10331000394600F0A9FD084A084B00F043FB42463D
:10332000534600F0A1FD08B02A462346BDE8F04D03
:1033300000F038BBBA190000495555555555C5BF61
:10334000012201F032BB002213461046114600F064
:10335000D9BB0000024A0020110701F026BB000083
:1033600001FDFFFF2DE9F84F04460D4621F0004016
:1033700000917349814211DC7249884201DC06D117
:103380002CB120462946BDE8F84FFFF7D9BF6E485B
:10339000002DCCBF6D496E49BDE8F88F6D49814263
:1033A00011DD6D498142D8BF4FF0FF366DDD2046FB
:1033B0002946FFF792FC042808BFFFF7CBFF204601
:1033C0002946BDE8F88F6549654F25F000458142E3
:1033D00033DD6449814219DD002632464FF08043D7
:1033E0002046294600F0DEFA80468A460122204621
:1033F000294601F0DAFA00223B4600F03FFE424641
:10340000534600F07FFB04460D463EE001260022B5
:10341000BA463B462046294600F0C4FA80460F468D
:10342000002253462046294600F028FE42463B46ED
:1034300000F068FB04460D4627E04B4981421BDD46
:10344000DFF828A10226002253462046294600F034
:103450000BFD00223B4600F0A5FA80460F460022F5
:1034600053462046294600F009FE42463B4600F0FE
:1034700049FB04460D4608E0032622462B46002061
:103480003B4900F03FFB04460D4622462B461046C2
:10349000194600F0E9FC8B46824602460B4600F0D6
:1034A000E3FC07460246334888460B46062178442B
:1034B000FFF77AFE52465B4600F0D6FC82462E4865
:1034C0008B463A46434605217844FFF76DFE3A465F
:1034D000434600F0C9FC02460B46002E50465946B2
:1034E0000CDA00F05FFA22462B4600F0BDFC01B07A
:1034F00022462B46BDE8F04F00F0B4BD00F052FA72
:1035000022462B4600F0B0FC1C4A7A4402EBC6036C
:10351000D3E9002300F0B2FD22462B4600F0AEFDB9
:10352000174A7A4402EBC603D3E9002300F09AFD60
:10353000009A002AB8BF81F00041BDE8F88F000072
:10354000000010440000F07F182D4454FB21F93F87
:10355000FB21F9BF0000DC3F0000203E0000F33FEC
:103560000000F03F0000E63F008003400000F83F0D
:103570000000F0BF8616000044160000E2150000AF
:10358000AA15000000B5244B21F0004287B09A42F2
:10359000DCBF0022134629DD204B9A4208D140B9F6
:1035A0004FF00100FCF73FFEFFF7CDFE07B000BD76
:1035B00003DBFFF7C5FE07B000BD02AAFFF7B2FBB1
:1035C00010F0030104BF0DF1080C9CE80F000DD0B2
:1035D000012001290ED0022914D00DF1080C009011
:1035E0009CE80F00FFF736FE07B000BDFFF75EFD59
:1035F00007B000BD0DF1080C00909CE80F00FFF72C
:1036000029FE05E00DF1080C9CE80F00FFF74EFDC8
:1036100007B081F0004100BDFB21E93F0000F07FD1
:10362000FDF756FAFFF77AF8FEF7D6FCFEF7A4FC92
:10363000FEF728FDFEF76EFDFEF7A0FDFEF7D4FDB8
:10364000324831490C2201604FF4E13141600021E0
:103650008160C160C0E904128161C161FEF7CEFBE7
:1036600008B172B6FEE7FEF75FFC2A482849016000
:103670000621416096218160FDF7EEF908B172B62E
:10368000FEE724494FF400405431096848621F495D
:103690009039096848621F480C30FDF7D5FD1D4878
:1036A0000C300068C16841F00101C1601948002177
:1036B0000C30FEF729F9174804210C30FEF724F9E5
:1036C000144808210C30FEF71FF912483C215430F1
:1036D000FDF78EFE0D483C219038FDF789FE0B4822
:1036E00000214838FEF706FB084804214838FEF759
:1036F00001FB00224FF400510748FDF7A1F900BF7C
:1037000000F046F8FCE7000000440040640200209E
:1037100000300040380100200010014070B505461F
:1037200001F062F804460146284601F097F815F0CA
:10373000004F4FF07F410ED0B0F13F4F28BFB1EBAB
:10374000400F0ED2B0F17C5F1DDDB1EB400F1AD3FC
:1037500013E0044617E0B0F13F4F08D9B1EB400F3A
:1037600005D34FF07E51204601F078F8F1E7B0F133
:103770007C5F08DBB1EB400F05D34FF07E51204654
:1037800000F092FDE5E7284664F31E0070BD0000DE
:103790002DE9FE4F5A48017800297DD000210170A3
:1037A000FFF758FA57490A785748584D584E594F1D
:1037B000DFF86481DFF86491DFF864B14FF07E5A7E
:1037C000F2B34FF0FF31006801F01DF9286000F0FE
:1037D0003FFD0D460291316804460191386800F0C2
:1037E000D7FD00F035FD064600224346009100F06B
:1037F0003BFB2B46224600F037FB074688465046E7
:10380000019900F0C5FDD9F8001000F0EFFE00F0BE
:103810001FFD894605463A46434600F0C3F800F0CE
:103820008FF8CBF80000304600223E4B029F0099F3
:1038300000F01AFB22463B4600F016FB024600E071
:1038400003E00B462846494642E0374A1278EAB37D
:10385000364A1278D2B34FF03F41006800F0C6FEFE
:103860002860316804460E46386800F091FD07462E
:10387000012101F0C8F8214600F0B8FE05463146A6
:10388000504600F085FDD9F8001000F0AFFE064666
:10389000294600F009FD00E020E0CBF800002046BA
:1038A00000F0D6FC04460D46384600F0D1FC00225C
:1038B000434600F0D9FA22462B4600F0D5FA0546D9
:1038C0000C46304600F0C4FC2A4600E008E02346DF
:1038D00000F0D4FB00F034F815490860BDE8FE8F15
:1038E00008780028FAD11348016813480068FEF7E9
:1038F000C1FD12490860BDE8FE4FFEF73DBE000065
:103900000000002066000020844A000860000020BB
:10391000F8000020FC0000200000F83FB800002064
:1039200048000020000002406700002068000020DE
:103930004C0000205C000020B4000020DC000020CF
:1039400021F00042A2F16052B2F5801F01F0004365
:1039500028BFD2F17F6C0BD95FEA001C43EAC20298
:1039600042EB507018BF704728BF20F0010070472D
:10397000B2F5801FBCBF184670474FEA410C1CF5DA
:10398000001F02D2084600F0F8BE70B500F016FB2A
:1039900000000089FFF7F6BF4FF00040A0F580005F
:1039A0007047000010B591EA030F48BF83F0004351
:1039B00000F16C83841A71EB030C05D2121943EBEE
:1039C0000C03001B61EB0C01DFF824E14FEA1154FA
:1039D000A4EB135C1EEA430F18BF9EEA445F73D04A
:1039E00023EA0E03DCF1200E21EA045143F4801394
:1039F00032D322FA0CFE10EB0E0023FA0CFE41EB40
:103A00000E01CCF1200E03FA0EFE10EB0E0051F168
:103A10000001B1F5801FCCF1200E32D201EB045130
:103A200012FA0EF2BDE8104058BF7047401C38BF74
:103A30005FEA420218BF7047002814BF20F001005F
:103A400041F100014FEA410313F5001F38BF7047F1
:103A5000A1F1C04100F000BB012A43EB0302ACF12D
:103A6000200CDCF11F0E32BF4FF0000E23FA0CF3D6
:103A700010EB030041EB0451B4EB115FD0D0A1EB8C
:103A8000045101F5801149085FEA300001EB04514F
:103A90000ED350F1000038BF12FA0EFE08D1BDE877
:103AA0001040C9E7401C38BF5FEA4202CAD1C3E7F1
:103AB000BDE810404FEA410313F5001F38BF7047BF
:103AC000A1F1C04100F0C8BA9EEA445F08D011EAF3
:103AD0005E0FBDE8104004BF01F0004100207047B8
:103AE000BDE8104070B500F069FA00BF64FBBE3E4F
:103AF0000000E0FF02494FF0000000F024BF00BFCB
:103B00000000F87F2DE9C04130B4DFF8A0C23CEAE4
:103B1000111418BF3CEA131400F0EC8081EA03058D
:103B20001CEA111444EAD57418BF1CEA131500F0FE
:103B3000C780A4EB05044FF0004545EAC12145EAE2
:103B4000C32341EA505143EA525304F17F7499422E
:103B500004F500344FEAC0204FEAC22208BF904269
:103B600000F09C804FEA13650FF24016765D4FEA35
:103B7000134506FB05F7C7F1807706FB07F74FEA09
:103B8000D737A7FB03687642C8F58038A7FB06CE77
:103B900038BFA8F1010807FB08E64FF0000EA6FBAE
:103BA000028CE6FB03CEDCF1000CCEF1004E38BFF8
:103BB000AEF1010EA6FB0C584FF000074FF00005C8
:103BC000E6FB0E87A1FB08C6A0FB07CE16EB0E0690
:103BD00045F10005E1FB076515F1E04E7EBFA4F558
:103BE00080345FEA46066D4116F1800745F1000515
:103BF0004FEA17274FEA066647EA0567A6F1DE4651
:103C0000B6F1805F4FEA15251FD9384624F0010C24
:103C100005EBC471BCF1FE6F01EB0C1102D8F0BCD6
:103C2000BDE8008124425CBF01F5801E9EEAC47F8E
:103C300002D4F0BCBDE80081244238D4F0BCA1F12C
:103C4000C041BDE8004100F007BA4FEAD22242EA83
:103C500043524FEAD323A7FB02864FEAD02040EA23
:103C6000415007FB03661EEA0E0F4FEAD12105FB08
:103C7000026658BFA6EB0056B6EB00564FEA520E4E
:103C80004EEAC37E18EB0E0E56EB530EBDD518EB65
:103C900002085E417F1C55F10005B6E74FF4801520
:103CA0004FF000074FF000064FF00008ADE7F0BC02
:103CB0004FF0000001F1C04101F00041BDE800817A
:103CC00011EA0C1F0CEA131500D00CE013EA0C1FCC
:103CD00000F025804FF00000F0BC81EA030101F004
:103CE0000041BDE80081F0BCBDE8004181EA03016C
:103CF00000F0B2B9F0BCBDE8004170B500F05EF96B
:103D0000097EFC3E00F007B881EA03014FF0000095
:103D100001F00041704781EA030100F09DB9F0BC59
:103D2000BDE800414FF0000021497047FFFDFBF95D
:103D3000F7F5F4F2F0EEEDEBE9E8E6E4E3E1E0DEDE
:103D4000DDDBDAD8D7D5D4D3D1D0CFCDCCCBCAC850
:103D5000C7C6C5C4C2C1C0BFBEBDBCBBBAB9B8B777
:103D6000B6B5B4B3B2B1B0AFAEADACABAAA9A8A86A
:103D7000A7A6A5A4A3A3A2A1A09F9F9E9D9C9C9B38
:103D80009A999998979796959594939392919190E3
:103D90008F8F8E8E8D8C8C8B8B8A89898888878774
:103DA0008685858484838382828181800000FF07E9
:103DB0000000F87F4FEA41034FEA5353A3F58063B5
:103DC000D3F11E03C8BFD3F1210C0CDD4FF000422C
:103DD00042EAC12242EA505232FA03FC8CEAE17C08
:103DE000ACEBE1707047102BC4BF0020704703F5A7
:103DF000787CBCF1FF3F04D06FF0004282EA2100E2
:103E0000704770B500F0DAF84992248000207047BE
:103E1000F2E710F0004248BF4042B0FA80F310FAD7
:103E200003F10AD0C3F11D0303F580634FEA41504B
:103E300002EB035202EBD12170474FF000007047B4
:103E4000B0FA80F310FA03F10AD0C3F11D0303F5B1
:103E500080634FEA41504FEA035202EBD121704791
:103E60004FF0000070470000DFF848C170B51CEA51
:103E7000111E1EBF1CEA13159EEA0C0F95EA0C0FCB
:103E800000F06F8081EA030423EA4C134EEAD47EEB
:103E900021EA4C1141F4801143F48013AE44A1FB9C
:103EA000024CA0FB0365AEF17F7E361955EB0C0585
:103EB000A1FB034C4CF10003A0FB021C16EB0C060B
:103EC000654153F10003094218BF46F0010613F49F
:103ED000007F0BD14FEA03314FEA0530340341EA4A
:103EE000155140EA16506FF003020AE04FEAC32171
:103EF0004FEAC520F40241EA555140EA56506FF0AE
:103F0000020202EB2E4201EB025585EACE710AD085
:103F10005FEA440C18BF24F0004450F1000041F166
:103F2000000120EAD47040F2FE7C624500D270BDF0
:103F3000A84214BF4FF080444FF04044002E08BF09
:103F40000024BEF1806FA8BFA1F1C041BDE8704060
:103F500080F282804FF0000001F1C04101F0004189
:103F600070479EEA0C0F0CEA131518BF95EA0C0F68
:103F700006D04FF0000081EA030E0EF0004170BD44
:103F800000F01CF88900013E00F007B800F009B805
:103F90004FEA430C5FEA5C5C08D081EA030100F061
:103FA0005BB84FEA410C5FEA5C5CF6D14FF0000071
:103FB000014970470000FF070000F87F0EF1020E74
:103FC0002EF0030E5EF8046B364205D4012A43EB53
:103FD000030515F5001F12D8012841EB010C1CF553
:103FE000001F0CD80ED14FEAD17C15F5001F0CEB49
:103FF0004C0C0CF1020C08BF4CEBD37C04E04FF0EE
:10400000080C01E04FEAD37C0CEB4C0526FA05F6D0
:1040100006F00706B6F1040C06D20EEB860CBDE8DE
:1040200070404CF0010C6047DFE80CF0090B020215
:104030004FF000414FF00000A1F5002170BD19467E
:104040001046012851EB010418BFD4F5001484BFB9
:10405000002001F0004170BD0808A0F500114FEAF2
:104060003101704791EA030F10B581F000413FF52F
:10407000A1AC83F0004300F009B8000010B591EA4C
:10408000030F48BF83F000433FF594AC841A71EBF3
:10409000030C07D212198CF0004C43EB0C03001BED
:1040A00061EB0C01DFF8A4E14FEA1154A4EB135CBF
:1040B0001EEA430F18BF9EEA445F00F0B08023EA77
:1040C0006E03524221EA0451C3EB6E0338BF5B1EFC
:1040D000DCF1200E25D322FA0CFE10EB0E0043FA81
:1040E0000CFE41EB0E01CCF1200E03FA0EFE10EB9C
:1040F0000E0051F10001CCF1200E29D412FA0EF27B
:1041000001EB0451BDE8104058BF7047401C1CBF74
:10411000B2F1004F704700280CBF491C20F001008D
:10412000704712EB020E43EB030218BF4FF0010E73
:104130004EEA4202ACF1200CDCF11E0E54D943FAD7
:104140000CFE10EB0E0051F1FF31CCF11E0ED5D557
:104150000EF1010E12FA0EFE404141EB010101EB9E
:10416000445C5FEA5C5C10D910EBDE7001EB04513B
:1041700038BFBEF1004FBDE8104018BF704700289F
:104180000CBF491C20F00100704730D24FEAD42CFC
:1041900011F5001124F400641BD0B1FA81F20B3A3E
:1041A000A41AA41ED2F12003914030FA03F319435C
:1041B000904001EBCC71002C01EB0451BDE81040A4
:1041C000A8BF704701F1C0414FF0000001F000416D
:1041D0007047B0FA80F310FA03F100D110BDE41A71
:1041E000173C4805C90AE4E701EB045110BD49102A
:1041F00001EB0451BDE810404FEA300002E04FF0FF
:10420000000170474A0008BF0042F8D0B2F5001F15
:1042100028BF704701F000414FF0000070479EEA50
:10422000445F07D011EA5E0FBDE8104004BF0021D3
:1042300000207047BDE8104070B5FFF7BFFE00BF1B
:1042400040DFF63E83F00041104670470000E0FF7B
:1042500043004FEAD30C4FEA3C0C43401FBF4007DA
:104260000CF1605113F0FE4F70471CF0006F03D14A
:1042700000200CF0004170470CF0004343EA5070FE
:1042800010B540EACC0000F032FA00BF0000009206
:104290004FEA0001FFF7E0BE4FF000414FF0000091
:1042A000A1F500217047000090EA010F48BF81F09E
:1042B000004100F1DA82421A3CBF801A89184FEAA5
:1042C000D0524FF07F4C1CEA410FA2EBD15318BFE4
:1042D0009CEA026F00F03B804FF0004C4CEA00205B
:1042E0004CEA012121FA03FC10EB0C0C1ED202F166
:1042F000FF325FEA1C2040EBC25038BF70471CF011
:104300007F0F4FEA400C18BFBCF17F4F38BF70479A
:10431000C3F12003994008BF20F00100BCF17F4F9A
:1043200038BF7047A0F1C04000F027BA4FEA3C0008
:10433000000A40EBC25028BF1CF0FF0F4FEA400CB0
:10434000E6D018BFBCF17F4F38BF7047EAE79CEA60
:10435000026F05D010EA5C0F08BF00F00040704704
:1043600010B500F0C4F900BF64FBBE3E014800F088
:10437000EABA00BF0000C07F401058BFC0F1404003
:10438000491058BFC1F140418142EFF300807047AE
:104390004FF47F0C1CEAD0121EBF1CEAD11392EA24
:1043A0000C0F93EA0C0F00F0858090EA010F48BFD4
:1043B00042F4807240F4000C41F400002CF07F4184
:1043C00020F07F4000B58142A2EB03020FF2081CEF
:1043D000ACEB504EC0F100009EF800E04FEA4E0EEC
:1043E00000FB0EFC38BF49004FEA2C1C02F5FA0214
:1043F0000CFB0EF34FEACE1E4FEA112C4FEAC121FF
:104400000EEB635E42EB22420EFB0CFC4FEA1C53A8
:1044100000FB03114FEA112C4FEA01310EFB0CFC9B
:104420004FEADC4C00FB0C11C14228BF09184CEBD1
:1044300003335DF804EB10EB410143EBC250B2F5DE
:104440007C0F38BF704729D512F0F00F1CBF00F168
:10445000C04000F0004070470081828384858687D9
:1044600088898B8C8D8E8F919293959697999A9C33
:104470009D9FA0A2A3A5A7A8AAACAEB0B2B3B5B7A2
:10448000B9BCBEC0C2C5C7C9CCCED1D4D7D9DCDF78
:10449000E2E6E9ECF0F3F7FAFE0000004FEA400C28
:1044A0000CF1807CBCF17E4F28BF7047B0F1C0405A
:1044B00000F063B990EA010F0CEAD11348BF42F44F
:1044C0008072624538BF634507D213F47F0F16D060
:1044D00080EA010000F00040704710B500F007F9D5
:1044E000097EFC3E00F005B880EA010000F00040C3
:1044F000704780EA010000F0004000F03EB912F47D
:104500007F0F04BF0248704780EA010000F035B910
:104510000000C07FC10DD1F19E0206DB4FEA0023EF
:1045200043F0004323FA02F07047004207D54FEAF8
:104530004001B1F1FE4F02D24FF00000704710B5BC
:1045400000F0D5F849922480002070476FEA2000DF
:104550007047000010F0004148BF4042B0FA80F3BD
:1045600010FA03F2C3F19D030BD051EAC35101EBE2
:104570001220530638BF704700F1010008BF20F039
:104580000100704750EA010C00F113801CF5000F88
:1045900058BFBCF5000F01D48842704707D710F50B
:1045A000000F58BF11F5000F15D48842704789429B
:1045B00070471CF5000F04D5BCF5000FF7D58142FC
:1045C00070474FF0807C1CEB400F38BF1CEB410F55
:1045D00001D28142704710B500F089F89224490059
:1045E0004FF000504FF08051FFF7C6BE4FF47F0CE4
:1045F0001CEAD0121EBF1CEAD11392EA0C0F93EAF8
:104600000C0F00F0478090EA010F48BF42F480721F
:104610004FF0004C4CEA00204CEA012102EB03026F
:10462000A0FB0113A2F50002002918BF43F001030B
:104630005B0028BF4FEA330342EB22425FEA132CB0
:104640004CEBC2502EBFBCEB436FB2F57C0F7047F2
:104650004FEA036CBCF1004F08BF20F00100B2F537
:104660007C0F38BF70470BD582F0FF0212F5803FF8
:10467000C8BF704700F1C040D8BF00F0004070478D
:1046800000F5000C5FEA4C0C48BF7047B0F1C04029
:1046900000F073B890EA010F0CEAD11348BF42F45E
:1046A0008072624538BF634504D280EA010000F0A1
:1046B0000040704710B500F01AF800BF8900013EB5
:1046C00000F007B800F009B85FEA410C5FEA1C6C23
:1046D00008D080EA010000F050B85FEA400C5FEAC1
:1046E0001C6CF6D14FF00040A0F5800070470EF131
:1046F000020E2EF0030E5EF8044B244204D44FEA5F
:104700004102B2F17F4F11D84FEA4003B3F17F4F1E
:104710000CD80ED14FEAD07CB2F17F4F0CEB4C0C91
:104720000CF1020C08BF4CEBD17C04E04FF0080CFC
:1047300001E04FEAD17C0CEB4C0324FA03F404F0C3
:104740000704B4F1040C06D20EEB840CBDE8104053
:104750004CF0010C6047DFE80CF0070802024FF054
:104760000040A0F5800010BD0846420018BFD2F1FD
:10477000807288BF00F0004010BDFF2141EAD05098
:10478000C005704751EA000C00F113801CF5000FC2
:1047900058BFBCF5000F01D48142704707D711F50F
:1047A000000F58BF10F5000F15D4814270478942A1
:1047B00070471CF5000F04D5BCF5000FF7D58842F3
:1047C00070474FF0807C1CEB410F38BF1CEB400F53
:1047D00001D28842704780EA010081EA000180EA44
:1047E0000100FFF7F8BE00005FEA400C5FEA1C6CB6
:1047F000BCF17F0314D4D3F1170240F31C804FF0B7
:10480000010C0CFA02FCACF101030340B3EB5C02B7
:1048100020EA030008BF10EA0C0F88BF604470470D
:10482000B3F1FF3F28BF5FEA002C00F0004088BFD3
:1048300040F07E507047BCF1FF0FB8BF704710B515
:10484000FFF755FF40DBB6BE80F0004090EA010F55
:104850007FF531AD81F0004100F007B890EA010F1B
:1048600048BF81F000413FF526AD421A04D882F0DE
:104870000042A0EB020011444FEAD0524FF07F4CAF
:104880001CEA410FA2EBD15318BF9CEA026F4AD039
:104890004FF0004C4CEA00204CEA012121FA03FCC5
:1048A000B0EB0C0C0FD412F0FE0F36D05FEA4C00C8
:1048B0001DD5001240EBC25038BF70471CF03F0FAF
:1048C00018BF70470BE0A2F101025FEA1C2040EB29
:1048D000C25038BF70471CF07F0F18BF7047C3F13C
:1048E0002003994014BF401E20F00100704780084B
:1048F0004FEA122308BF7047B0FA80FCA2EB0C020B
:10490000CCF1280C60FA0CF093EA122F04BF00EBF4
:10491000C25070474FEAC3707047130A5FEADC1059
:1049200008BF7047F6E79CEA026F04D010EA5C0FFC
:1049300008BF0020704710B5FFF7D9FE40DFF63EF4
:1049400081F0004070470CF00F03092B08BF0820CE
:1049500000F07F800A2B0BD0082B18BF704708BFD0
:104960001CF0400F0AD04FF000004FF000017047DC
:104970001CF0400F18BF4FF0004070471CF0100FA4
:1049800008D020F0704300F07F4242EAD3014FEAA2
:104990004370704700F0604021F07F4242EA00021D
:1049A00001F07F4040EA727070474FF0FF0C4CF40A
:1049B000E06C1CEA11531CBF9CEA030C9445C2BF77
:1049C000DA4201EB02517047002B0DD0BCF1000F11
:1049D0000FD0002A01F00041A4BF41F0E04141F0B6
:1049E0007F614FF00000704701F000414FF0000080
:1049F000704750EA01334FF09B0C18BF4CF0806CAD
:104A00007FF478A870474FF0FF0212EAD0521CBF23
:104A100092F0FF038B42C2BFD14200EBC1507047FE
:104A2000002A0AD0002B0BD0002900F00040A4BFC0
:104A300040F0FE4040F40000704700F00040704736
:104A400043024FF00B0C18BF4CF0806C7FF48EAC1F
:104A500070471CF4801F11D01CF4E02F03D06FEAC4
:104A6000CC31490070474FF04050EFF3008222F004
:104A7000704242EA000282F3008870474FF0000063
:104A800070470000DB0F49400080C7430080C7C368
:104A90000080C7430080C7C30000C8430000C8C3EC
:104AA000010202030405060708090A0B0C0D0E0F8C
:104AB00010100000000000000000010203040607BF
:104AC00008090000000001020304000000000000CB
:104AD0004FBB610567ACDD3F182D4454FB21E93F16
:104AE0009BF681D20B73EF3F182D4454FB21F93F05
:104AF000E2652F227F2B7A3C075C143326A6813C8B
:104B0000BDCBF07A8807703C075C143326A6913C35
:104B1000C4EB98999999C9BF711623FEC671BCBFA1
:104B20006D9A74AFF2B0B3BF9AFDDE522DDEADBF09
:104B30002F6C6A2C44B4A2BF0D5555555555D53F21
:104B4000FF8300922449C23F6E204CC5CD45B73F3C
:104B5000513DD0A0660DB13FEB0D76244B7BA93FB4
:104B600011DA22E33AAD903F4C5555555555A53FC6
:104B70007751C1166CC156BF9015CB19A001FA3EF2
:104B8000AD529C804F7E92BEC4B1B4BD9EEE213E1C
:104B9000D43888BEE9FAA8BD00004054FB21F93F93
:104BA0003163621A61B4D03D0000601A61B4D03D37
:104BB0007370032E8A19A33B0000002E8A19A33BB1
:104BC000C14920259A837B390000000000000000C5
:104BD0006E83F9A22915444ED15727FCC0DD34F568
:104BE000999562DB4190433CAB6351FE61C5BBDEEE
:104BF0003A6E24B7E0D24D42EA2E49061C92D10902
:104C00001CEB1DFE3EA729B1F53582E88444BB2E7E
:104C100026709CE9417E5FB439D69139F4395383CB
:104C20008B5F849C3B28F9BDFF97F81F0F9805DE2A
:104C30008B112FEF1F6D0A5ACF7E366DB709CB2728
:104C4000663F464F2DEA5F9EC7BA27757BF1E5EBBD
:104C5000F739073DEA92528AB15FFB6B085D8D1F01
:104C6000A6F810111111813FD561C119A0012ABF09
:104C70007DFEB157E31DC73EEB9C2B8AE6E55ABE8D
:104C80007CD5CF5A3AD9E53DA84C00080000002059
:104C90000801000028010008B04D000808010020AC
:104CA0009008000044010008000000000000A0413E
:104CB00000000000000000000000000000000000F4
:104CC00000000000000000000000000000000000E4
:104CD00000000000000000000000000000000000D4
:104CE00000000000000000000000000000000000C4
:104CF00000000000000000000000000000000000B4
:104D000000000000000000000000000000000000A3
:104D10000000000000000000000000000000204231
:104D20000000A0429A99993E000000000000000097
:104D30000000000000000000000000000000204211
:104D40000000A0429A99993E000000000000000077
:104D50000000000000000000000000000000F04122
:104D60000000C8410000C8420000C8410000403FA8
:104D70000000000000000000000000000000000033
:104D80000000000000000000000000000100000022
:104D900010000000000000000024F4000000C842E1
:104DA0009A9909400000C040000000000000000087
:04000005080000ED02
:00000001FF
